S0150000446F675F44697370656E7365722E73726563E9
S11300004CC0000069C0000067C0000065C000006B
S113001063C0000061C000005FC000005DC000005C
S11300205BC0000059C0000057C0000055C000006C
S113003053C0000051C000004FC000004BC400007A
S11300404BC0000049C0000047C0000045C000008C
S113005043C0000041C000003FC000003DC000009C
S11300603BC0000039C0000037C0000035C00000AC
S113007033C0000031C00000F8C300002DC00000F0
S11300802BC0000029C0000027C000002B0E2F0E3B
S1130090340E3B0E4E0E420E460E11241FBECFEF01
S11300A0D0E1DEBFCDBF19E0A0E0B1E0E0EFF9E2BE
S11300B000E00BBF02C007900D92A630B107D9F73C
S11300C029E0A6E0B9E001C01D92A93EB207E1F71C
S11300D00E94A90D0C94F61493CFE4E6F0E080811D
S11300E0877F808308958FE39CE90197F1F700C02F
S11300F0000090916300892F887093FD07C0909150
S11301000001913019F41092000108959091630058
S1130110892F887093FF09C080910001811104C068
S113012081E080930001089580E00895139AEAE83D
S1130130F0E0808182608083808188608083808118
S11301408083EBE8F0E080818064808388EE93E034
S113015090938700809386000895EBE8F0E0808117
S11301608F7380830895EBE8F0E08081806480835E
S11301700895F9DFE6E8F0E088EE9EE0918380835D
S11301802FEF85EA9EE0215080409040E1F700C0C7
S1130190000086ED9BE0918380832FEF85EA9EE04B
S11301A0215080409040E1F700C0000087EF99E0C3
S11301B0918380832FEF85EA9EE021508040904018
S11301C0E1F700C00000C9CF0895CDDFE6E8F0E014
S11301D088E797E0918380832FEF80E792E02150B6
S11301E080409040E1F700C0000081E39BE09183F0
S11301F080832FEF80E792E0215080409040E1F728
S113020000C00000AACF08952FEF87EA91E621509D
S113021080409040E1F700C0000010926C090895FE
S1130220CF92DF92EF92FF92CF93DF9300D000D072
S11302301F92CDB7DEB7682F792FFE01319685E086
S1130240DF011D928A95E9F710926C09C098B89A5B
S1130250BFEF29EF80E0B15020408040E1F700C0BB
S11302600000C09AB8982FE10AC09AE09A95F1F775
S113027000C0215021F484E080936C098FC0B099B0
S1130280F4CF80916C09882359F088C0AAE0AA951C
S1130290F1F700C0215029F484E080936C090EC06A
S11302A023E3B09BF3CF0AC0BAE0BA95F1F700C0DC
S11302B0215029F484E080936C0970C023E3B09941
S11302C0F3CF80916C09882309F443C067C08AE0A6
S11302D08A95F1F700C0215031F450936C0945E040
S11302E034C0422F24E2B09BF2CF20916C0921113B
S11302F029C09AEB9A95F1F700C0B09B1EC0E1E0CB
S1130300F0E0EC0FFD1FE40FF11D2081D701C601C1
S1130310032E04C0880F991FAA1FBB1F0A94D2F78B
S1130320822B80830AC0AAE0AA95F1F700C021506D
S113033029F450936C09242F06C023E3B099F3CF1A
S1130340242F01C0242F315062F64F5F453038F01E
S113035008C040E0C12CD12C7601C39454E037E0AE
S1130360C1CF80916C09811119C099818A81980F3C
S11303708B81980F8C81890F9D81891721F083E0EF
S113038080936C090BC0DE011196E62FF72FCE0186
S113039005962D912193A817B907D9F70F900F90BF
S11303A00F900F900F90DF91CF91FF90EF90DF901F
S11303B0CF900895EF92FF920F931F93CF93DF9303
S11303C000D000D0CDB7DEB78C017B0119821A8230
S11303D01B821C82CE01019623DF80916C0981115E
S11303E018C08B81F80180838C8181838981F70116
S11303F080839A819183F8019081933320F082E085
S113040080936C0906C085508B3518F081E0809389
S11304106C090F900F900F900F90DF91CF911F9167
S11304200F91FF90EF900895D09AD19AD29A08959F
S1130430DA9A0895DA980895D898D89AD8980895A9
S1130440D99A0895D9980895D1980895D19A08957C
S11304509DEC899F912D112496959695969520E172
S1130460929FA0011124990F292F220F220F920F7E
S1130470891B842B0895982F92959F70990F292F8B
S1130480220F220F920F8F70890F08950F931F93DD
S1130490CF93DF93082FDADFC0E0D0E010E09801BB
S11304A00C2E02C0359527950A94E2F720FF02C06E
S11304B0C7DF01C0C7DFC0DF2196C830D10579F797
S11304C0DF91CF911F910F910895DF92EF92FF92E8
S11304D00F931F93CF93DF93B7DFC0E0D0E010E01A
S11304E0D12C00E0EE24E394F12CC99B08C0C70191
S11304F00C2E02C0880F991F0A94E2F701C08D2DBB
S1130500182B9ADF2196C830D10579F7812FDF9116
S1130510CF911F910F91FF90EF90DF900895CF93AB
S1130520DF93D82FC62F84DF8D2FB0DF8C2F90DF81
S1130530ADDF80DFDF91CF910895CF93C82F78DFAF
S113054081E08C0FA3DFC1DFC82F74DF8C2F93DF12
S1130550CF910895CF93DF93EC0180E8EEDF888399
S113056082E8EBDF898384E8E8DF8A83DF91CF9137
S11305700895CF93DF93EC0186E8DFDF8B8388E86F
S1130580DCDF8C838AE8D9DF8D838CE8D6DF8E8329
S1130590DF91CF9108950F931F93CF93DF93CDB73E
S11305A0DEB729970FB6F894DEBF0FBECDBF1A830E
S11305B02B833C834D835E836F83602F80E8AFDFA2
S11305C06A8182E8ACDF6B8184E8A9DF6C8186E80C
S11305D0A6DF6D8188E8A3DF6E818AE8A0DF6F81E2
S11305E08CE89DDF29960FB6F894DEBF0FBECDBF11
S11305F0DF91CF911F910F910895EAE9F0E0808196
S113060088698083EBE9F0E08081826080831092C6
S113061098008FEC809399000895EBE9F0E09081C5
S113062095FFFDCF80939C000895CF93DF93EC0159
S11306308881882329F02196F0DF89918111FCCFEC
S1130640DF91CF91089580910909089510920909C5
S11306508AE099E00895CF93DF931F92CDB7DEB778
S113066080919C00898389818A3019F089818D3039
S113067061F4E0910809F0E0E65FF64F1082109211
S1130680080981E0809309090BC080910809E82FCB
S1130690F0E09981E65FF64F90838F5F80930809BD
S11306A00F90DF91CF91089591B3936091BB8093A4
S11306B07000089584EA80937400E4E7F0E0808198
S11306C08823ECF708958093730084E88093740082
S11306D0E4E7F0E080818823ECF70895CF93DF937B
S11306E0D82FC62FE7DF8D2FEEDF8C2FECDF84E9C8
S11306F080937400DF91CF910895EF92FF920F934E
S11307001F93CF93DF9300D000D0CDB7DEB7282F4F
S1130710207F30E1839FC0011124922F9D60998333
S113072029602A83982F9D609B8389608C838E0126
S11307300F5F1F4F7E0185E0E80EF11CF801619107
S11307408F018EE7CBDF0E151F05C1F70F900F90B9
S11307500F900F90DF91CF911F910F91FF90EF9029
S11307600895EF92FF920F931F93CF93DF9300D0DE
S113077000D0CDB7DEB7282F207F30E1839FC001A2
S11307801124922F9C60998328602A83982F9C605F
S11307909B8388608C838E010F5F1F4F7E0185E0F1
S11307A0E80EF11CF80161918F018EE797DF0E15B9
S11307B01F05C1F70F900F900F900F90DF91CF910D
S11307C01F910F91FF90EF90089581E0CADF8FE3AE
S11307D09FE10197F1F700C00000089588E490E0DC
S11307E063DF2FEF80E792E0215080409040E1F7F3
S11307F000C0000083E3B5DF82E3B3DF88E2B1DF4A
S11308008CE0AFDF86E0ADDF81E0ABDF8FE39CE916
S11308100197F1F700C0000008950F931F93CF9341
S1130820FC018081882351F08F01C0E066DFCF5F37
S1130830F801EC0FF11D80818111F8CFCF911F9148
S11308400F91089581706F7090E4899F600D112459
S1130850862F805886CF0895CF93DF93EA01F2DF85
S1130860CE01DBDFDF91CF9108951F920F920FB677
S11308700F9211240BB60F922F933F934F935F93D4
S11308806F937F938F939F93AF93BF93EF93FF9354
S1130890E2DE80919C008A3021F080919C008D30B2
S11308A031F48FE39FE10197F1F700C00000FF915D
S11308B0EF91BF91AF919F918F917F916F915F91D4
S11308C04F913F912F910F900BBE0F900FBE0F9041
S11308D01F9018951F920F920FB60F9211240BB60A
S11308E00F922F933F934F935F936F937F938F93C5
S11308F09F93AF93BF93EF93FF930E94910E0E9437
S1130900AE0EFF91EF91BF91AF919F918F917F9127
S11309106F915F914F913F912F910F900BBE0F906C
S11309200FBE0F901F9018958BE691E07EDE80EA53
S113093091E07BDE8BEC91E078DE8AEE91E075DE6F
S113094084E092E072DE88E192E06FDE8CE292E075
S11309506CDE81E492E069DE86E792E066CE08957B
S11309600F931F9380916109811109C087E892E078
S11309705CDE82EA92E059DE81E0809361090E94A4
S1130980A50E00918A0910918B0920918C09309150
S11309908D09DC01CB01801B910BA20BB30B853FAE
S11309A09140A105B10510F180915F0981110DC03D
S11309B049EC52E060E050DF4AED52E060E081E053
S11309C04BDF81E080935F0907C04BEE52E060E0AB
S11309D081E042DF10925F090E94A50E60938A09AC
S11309E070938B0980938C0990938D092CDE882356
S11309F0B1F12CDE9093A3098093A20916DE81E164
S1130A0096E013DE8091A2099091A3090E94CC1173
S1130A1080930F0199279F938F938CEF92E09F937C
S1130A208F9388EB99E09F938F930E941B1288EB1E
S1130A3099E0FBDD79DF1092610910925F09109251
S1130A4062091092E0098FE39FE10197F1F700C07A
S1130A5000000F900F900F900F900F900F901F9128
S1130A600F9108950F931F93CF93DF938DE699E031
S1130A7071DD8DE699E07DDD0E94A50E00918A0965
S1130A8010918B0920918C0930918D09DC01CB01E7
S1130A90801B910BA20BB30B893C9105A105B105F9
S1130AA008F476C080914F098F5F80934F099DECC5
S1130AB0899F912D112492959695977028E2929F83
S1130AC080191124811104C080914D09811107C03E
S1130AD06BE479E08DE499E06DDC10924F09CDE68A
S1130AE0D9E0ED81F0E0EE0FFF1FEF5FFE4F818153
S1130AF08F9380818F938B811F928F938C811F9210
S1130B008F938E8190E08053984F9F938F9385E0CD
S1130B1093E09F938F9384EA99E09F938F930E942D
S1130B201B12EDE4F9E081811F928F9380811F9263
S1130B308F9388811F928F9389811F928F938A81CB
S1130B401F928F9389E193E09F938F9386E799E0B7
S1130B509F938F930E941B1244EA59E060E080E067
S1130B607BDE46E759E060E081E076DE0E94A50E78
S1130B7060938A0970938B0980938C0990938D09F3
S1130B808DB79EB74A960FB6F8949EBF0FBE8DBF21
S1130B90DF91CF911F910F91089517DE809110017D
S1130BA0833091F028F48130F1F0823049F016C09E
S1130BB0853071F018F0863069F010C085E0089532
S1130BC091E090936209089591E0909362090895E9
S1130BD084E0089591E090936209089584E393E09A
S1130BE024DDA2DE80E00895FF920F931F93CF933C
S1130BF0DF93082F10E01016110614F5F62EC0E04E
S1130C00D0E0BD9A8F2D0E946B0E2FEF8DE292E201
S1130C10215080409040E1F700C0000080E00E9435
S1130C206B0E2FEF8DE292E2215080409040E1F76D
S1130C3000C00000BD98C9DA2196C017D10709F792
S1130C40DF91CF911F910F91FF90089580914D09ED
S1130C50882321F090914B09911104C08AE593E017
S1130C60E4CC089520914C091F922F931F929F93D7
S1130C7090914E091F929F931F928F9387E893E060
S1130C809F938F9388EB99E09F938F930E941B12FD
S1130C9088EB99E0CADC86EB93E0C7DC8DB79EB79E
S1130CA00C960FB6F8949EBF0FBE8DBF08950F9398
S1130CB01F93CF93DF9380916009823009F4FFC0C2
S1130CC030F4882369F0813009F46DC041C3843065
S1130CD009F4F9C108F495C1853009F480C238C318
S1130CE080916109811106C089EB93E09EDC81E06B
S1130CF0809361090E94A50E00918A0910918B09C5
S1130D0020918C0930918D09DC01CB01801B910B62
S1130D10A20BB30B853F9140A105B10508F1809169
S1130D205F0981110DC040ED53E060E095DD41EEB7
S1130D3053E060E081E090DD81E080935F0907C0CB
S1130D4042EF53E060E081E087DD10925F09FDD758
S1130D5060938A0970938B0980938C0990938D0911
S1130D6072DC882309F4F4C271DC9093A3098093A4
S1130D70A2095BDC81E196E058DC8091A2099091A4
S1130D80A3090E94CC1180937309109261091092F7
S1130D905F0981E0809360098FE39FE10197F1F798
S1130DA000C00000D5C280916109811106C083E0B2
S1130DB094E03BDC81E080936109C7D700918A0904
S1130DC010918B0920918C0930918D09DC01CB01A4
S1130DD0801B910BA20BB30B853F9140A105B1057C
S1130DE008F44AC080915F09811122C0809173097F
S1130DF01F928F938BE194E09F938F938EE899E0F9
S1130E009F938F930E941B1240ED53E060E080E0BB
S1130E1023DD4EE859E060E081E01EDD81E080934F
S1130E205F090F900F900F900F900F900F901BC0C1
S1130E30809173091F928F938EE294E09F938F9316
S1130E408EE899E09F938F930E941B124EE859E01D
S1130E5060E081E001DD10925F090F900F900F9028
S1130E600F900F900F9071D760938A0970938B093C
S1130E7080938C0990938D09E6DB882309F468C27A
S1130E80E5DB9093A3098093A209CFDB81E196E08F
S1130E90CCDB8091A2099091A3090E94CC1180938C
S1130EA071091092610910925F0982E080936009D0
S1130EB08FE39FE10197F1F700C0000049C28091E0
S1130EC06109811106C081E494E0AFDB81E0809385
S1130ED061093BD700918A0910918B0920918C09F3
S1130EE030918D09DC01CB01801B910BA20BB30B5C
S1130EF0853F9140A105B10508F456C080915F0972
S1130F00811128C0EDE6F9E084811F928F938681D8
S1130F101F928F9388E594E09F938F938EE899E0D6
S1130F209F938F930E941B1240ED53E060E080E09A
S1130F3093DC4EE859E060E081E08EDC81E0809350
S1130F405F098DB79EB708960FB6F8949EBF0FBE83
S1130F508DBF21C0EDE6F9E084811F928F938681D5
S1130F601F928F938DE694E09F938F938EE899E080
S1130F709F938F930E941B124EE859E060E081E03A
S1130F806BDC10925F098DB79EB708960FB6F89484
S1130F909EBF0FBE8DBFD9D660938A0970938B090B
S1130FA080938C0990938D094EDB882309F4D0C17A
S1130FB04DDB9093A3098093A20937DB81E196E08E
S1130FC034DB8091A2099091A3090E94CC11CDE653
S1130FD0D9E08B832E8130E0482F6C81C901805386
S1130FE0984F24D78D831092610910925F0983E092
S1130FF0809360098FE39FE10197F1F700C000003F
S1131000A7C180916109811106C082E894E00DDBDB
S113101081E08093610999D600918A0910918B0926
S113102020918C0930918D09DC01CB01801B910B3F
S1131030A20BB30B853F9140A105B10508F1809146
S11310405F0981110DC049E954E060E005DC4AEA1A
S113105054E060E081E000DC81E080935F0907C038
S11310604BEB54E060E081E0F7DB10925F096DD652
S113107060938A0970938B0980938C0990938D09EE
S1131080E2DA882309F464C1E1DA9093A309809336
S1131090A209CBDA81E196E0C8DA8091A2099091A5
S11310A0A3090E94CC1180936F09109261091092D8
S11310B05F0984E0809360098FE39FE10197F1F772
S11310C000C0000045C180916109811106C08CEC0B
S11310D094E0ABDA81E08093610937D600918A0904
S11310E010918B0920918C0930918D09DC01CB0181
S11310F0801B910BA20BB30B853F9140A105B10559
S113110008F44AC080915F09811122C080916F095F
S11311101F928F9385EE94E09F938F938EE899E0CE
S11311209F938F930E941B1249E954E060E080E092
S113113093DB4EE859E060E081E08EDB81E0809350
S11311405F090F900F900F900F900F900F901BC09E
S113115080916F091F928F9388EF94E09F938F93F0
S11311608EE899E09F938F930E941B124EE859E0FA
S113117060E081E071DB10925F090F900F900F9097
S11311800F900F900F90E1D560938A0970938B09AB
S113119080938C0990938D0956DA882309F4D8C07A
S11311A055DA9093A3098093A2093FDA81E196E08E
S11311B03CDA8091A2099091A3090E94CC118093FA
S11311C06E091092610910925F0985E080936009AD
S11311D08FE39FE10197F1F700C00000B9C080914F
S11311E06109811106C08BE095E01FDA81E08093EC
S11311F06109ABD500918A0910918B0920918C0962
S113120030918D09DC01CB01801B910BA20BB30B38
S1131210853F9140A105B10508F456C080915F094E
S1131220811128C0EDE6F9E081811F928F938281BC
S11312301F928F9384E295E09F938F938EE899E0B9
S11312409F938F930E941B1249E954E060E080E071
S113125003DB4EE859E060E081E0FEDA81E0809350
S11312605F098DB79EB708960FB6F8949EBF0FBE60
S11312708DBF21C0EDE6F9E081811F928F938281B9
S11312801F928F9389E395E09F938F938EE899E063
S11312909F938F930E941B124EE859E060E081E017
S11312A0DBDA10925F098DB79EB708960FB6F894F3
S11312B09EBF0FBE8DBF49D560938A0970938B0979
S11312C080938C0990938D09BED9882309F440C07A
S11312D0BDD99093A3098093A209A7D981E196E08F
S11312E0A4D98091A2099091A3090E94CC11082F3E
S11312F080936D0910916E0920916F0930917009E6
S11313004091710950917209609173097091740947
S11313108091750940D959DA8EE495E086D941E681
S113132055E060E080E098DA9FEF23ED80E3915090
S113133020408040E1F700C0000010926009109244
S11313405F0910926209109261091092E009ECDAC7
S1131350DF91CF911F910F9108957F928F929F9269
S1131360AF92BF92CF92DF92EF92FF920F931F93AF
S1131370CF93DF9380916409882309F477C0C0E593
S1131380D9E000E010E00F2EFDE6EF2EF9E0FF2E8D
S1131390F02D0F2EF2E78F2EF5E09F2EF02D0F2E5D
S11313A0F8EBCF2EF9E0DF2EF02D0F2EF4E8AF2E60
S11313B0F5E0BF2EF02D772473949881F701828194
S11313C098134AC02981818128133AC090915D09FC
S11313D0911136C060910F018091630905DCF7011A
S11313E081811F928F9382811F928F939F928F92FC
S11313F0DF92CF920E941B12C60117D98091630914
S113140090E09C01220F331F220F331F820F931F82
S11314109F938F93BF92AF92DF92CF920E941B1241
S1131420C60103D980E995E000D970925D098DB7B2
S11314309EB70E960FB6F8949EBF0FBE8DBF0CC01C
S113144030E090E001962817390731F480915D0966
S1131450813011F410925D090F5F1F4F2296809125
S1131460640990E0081719070CF4A7CFDF91CF9116
S11314701F910F91FF90EF90DF90CF90BF90AF90AE
S11314809F908F907F900895CF92DF92EF92FF927A
S11314900F931F93CF93DF9388EA95E0C6D880918A
S11314A064091F928F9387EC95E09F938F9388EB49
S11314B099E09F938F93BFD788EB99E0B6D880913A
S11314C064090F900F900F900F900F900F90882346
S11314D0B9F100E519E0C0E0D0E00F2EFCEECF2E0C
S11314E0F5E0DF2EF02D0F2EF8EBEF2EF9E0FF2EB6
S11314F0F02D08C0C330D10519F483EE95E095D8DA
S11315000E5F1F4FF80181811F928F9380811F927C
S11315108F93DF92CF92FF92EF928DD7C70185D838
S113152021968091640990E02DB73EB7285F3F4F24
S11315300FB6F8943EBF0FBE2DBFC817D907D4F21B
S11315408091630990E09C01220F331F220F331F07
S1131550820F931F9F938F9389EF95E09F938F93AF
S113156088EB99E09F938F9366D788EB99E05DD8D9
S11315700F900F900F900F900F900F90DF91CF91DD
S11315801F910F91FF90EF90DF90CF900895CF922D
S1131590DF92EF92FF920F931F93CF93DF9380918B
S11315A06009813009F4AEC020F0823009F4FCC136
S11315B0C7C280916109811109C083E196E035D8E1
S11315C08EE396E032D881E080936109BED3009126
S11315D08A0910918B0920918C0930918D09DC01C5
S11315E0CB01801B910BA20BB30B853F9140A1054E
S11315F0B105C0F180915F09811116C04DE556E037
S113160060E02AD981E1EEE6F6E0AEE8B9E00190C7
S11316100D928A95E1F74EE859E060E081E01CD92B
S113162081E080935F0915C04DE556E060E080E0FD
S113163013D981E1EFE7F6E0AEE8B9E001900D924D
S11316408A95E1F74EE859E060E081E005D910920F
S11316505F097BD360938A0970938B0980938C090B
S113166090938D090E942303882309F469C20E9480
S113167026039093A3098093A2098ED680936409CC
S11316802FEF280F263038F080E996E00E941503EA
S11316901092610955C299279F938F938DEB96E021
S11316A09F938F93CEE8D9E0DF93CF93C4D6AE0156
S11316B060E081E0D1D8809164091F928F9381ED1D
S11316C096E09F938F93DF93CF93B5D6CE010E947C
S11316D01503FFEF29E638E1F15020403040E1F7EF
S11316E000C0000010925F091092610981E08093AC
S11316F060098DB79EB70C960FB6F8949EBF0FBEC7
S11317008DBF1EC28091610981110BC084EE96E0E9
S11317100E94150386E097E00E94150381E0809300
S1131720610913D300918A0910918B0920918C09C6
S113173030918D09DC01CB01801B910BA20BB30B03
S1131740853F9140A105B10508F444C080915F092B
S1131750811122C047E357E060E07ED880915C09A4
S113176090E001969F938F9388E497E09F938F93E3
S11317708EE899E09F938F935ED64EE859E060E03F
S113178081E06AD881E080935F090F900F900F90F9
S11317900F900F900F9015C047E357E060E080E092
S11317A05BD881E1EBE5F7E0AEE8B9E001900D929A
S11317B08A95E1F74EE859E060E081E04DD8109257
S11317C05F09C3D260938A0970938B0980938C0953
S11317D090938D090E942303882309F491C00E94E9
S11317E026039093A3098093A2098CE697E00E94B4
S11317F015038091A2099091A3090E94150381E128
S113180096E00E94150361E777E08091A209909128
S1131810A309DFD59093E2098093E109009709F0C9
S113182084C11AC0B9D5E0915C09F0E0EE0FFF1F46
S1131830E05BF64FEC0FF11D8083CF5FC23008F000
S1131840C0E061E777E080E090E0C3D59093E209DF
S11318508093E109009731F720915C09822F90E091
S1131860FC01EE0FFF1FE05BF64F3081383128F0AA
S113187083E797E00E94150363C1FC01EE0FFF1F8D
S1131880E05BF64F31813C3320F41816190634F02E
S11318902DC089E997E00E94150352C1C0E5D9E043
S11318A000E010E0FF24F394FC01EE0FFF1FE05B67
S11318B0F64F3081288132130FC0880F991FFC0125
S11318C0E05BF64F91818981981306C081EC97E023
S11318D00E941503F0924A090F5F1F4F20915C0983
S11318E0822F90E0229608171907F4F280914A0992
S11318F0813019F410924A0923C12F5F20935C09A7
S113190090915C0980916409981708F419C189EDD4
S113191097E00E94150380915C098823C9F100E5D2
S113192019E0C0E0D0E00F2EFCEECF2EF5E0DF2E64
S1131930F02D0F2EF8EBEF2EF9E0FF2EF02D09C05D
S1131940C330D10521F481E196E00E9415030E5FB6
S11319501F4FF80181811F928F9380811F928F9373
S1131960DF92CF92FF92EF9266D5C7010E941503D2
S1131970219680915C0990E02DB73EB7285F3F4FD8
S11319800FB6F8943EBF0FBE2DBFC817D907C4F2D7
S113199080E196E00E94150310925F09109261099C
S11319A082E080936009CCC080916109811124C0D8
S11319B083EF97E00E9415031F928FE08F931F928D
S11319C085E08F931F928F9381E298E09F938F938A
S11319D088EB99E09F938F932ED588EB99E00E9432
S11319E0150381E0809361098DB79EB70A960FB6FF
S11319F0F8949EBF0FBE8DBFA8D100918A091091A3
S1131A008B0920918C0930918D09DC01CB01801B5D
S1131A10910BA20BB30B853F9140A105B10550F189
S1131A2080915F0981110FC048E458E060E00E9492
S1131A302C0449E558E060E081E00E942C0481E038
S1131A4080935F090EC048E458E060E080E00E94A3
S1131A502C044AE658E060E081E00E942C041092D5
S1131A605F0973D160938A0970938B0980938C0901
S1131A7090938D090E942303882309F461C00E9476
S1131A8026039093A3098093A20986D480936309C3
S1131A90811105C08BE798E00E94150351C0992776
S1131AA09C01220F331F220F331F820F931F9F931A
S1131AB08F938BE998E09F938F9388EB99E09F93A2
S1131AC08F93B9D488EB99E00E94150384EA98E0D7
S1131AD00E941503D9DC48EB58E060E080E00E94E6
S1131AE02C0449EC58E060E081E00E942C04FFEFF4
S1131AF023ED30E3F15020403040E1F700C0000016
S1131B0010925F091092610910925C0910926009A9
S1131B10109262091092E0090E9494040F900F90B1
S1131B200F900F900F900F900BC036D4E0915C098A
S1131B30F0E0EE0FFF1FE05BF64F8083C1E081CE43
S1131B40DF91CF911F910F91FF90EF90DF90CF9095
S1131B500895E4E6F0E080818F7E80838081826056
S1131B608083E5E6F0E08081826080830E94EE035A
S1131B704AED58E060E080E00E942C040E940401D9
S1131B800E94FD020E941402C0D094D080E0A3D031
S1131B900E946D00789481E191E09093E60980932E
S1131BA0E509D3D060938A0970938B0980938C09DB
S1131BB090938D090E9496000E94B9006BE479E02D
S1131BC08DE499E00E94DA011092E0090E94E50395
S1131BD0C3E6D0E001E014E0888184FF0BC080916B
S1131BE05E09811107C00E9494040E94E5000093DD
S1131BF05E0904C0888184FF10925E090E94230359
S1131C008823B9F080916209811113C00E942603D0
S1131C109093A3098093A209BFD3809310010E94DB
S1131C20CD058093E0098FE39FE10197F1F700C0B0
S1131C3000000E947300882319F01093E0092EC05D
S1131C40E091E0098E2F90E08730910528F6FC01A1
S1131C50EA5BFF4F89C30E9432057FDBBDCF0E9440
S1131C6026061092E009B8CF80916209813009F00C
S1131C70B3CF1DD8B1CF80916209813009F0ACCFC8
S1131C8086DCAACF01DC1092E009A6CF809162091C
S1131C90813009F0A1CF0E94B0049ECF60910F0162
S1131CA0802F0E94F4058BEE98E00E941503109299
S1131CB0E00992CF8FB582608FBD8EB588618EBDED
S1131CC08FB580688FBD8EB583608EBD87E893E144
S1131CD097BD86BD0895682F70E080E090E033D210
S1131CE020E030E044E353E498D120E030E84DEEC6
S1131CF053E4B5D220E030E04AEF52E42AD1F5D1E2
S1131D00615071097BBD6ABD089583B7846083BF48
S1131D1083B7896083BF87B7826087BF89EF81BF3C
S1131D2008958091680990916909A0916A09B09118
S1131D306B090196A11DB11D8093680990936909EF
S1131D40A0936A09B0936B09089560916809709132
S1131D50690980916A0990916B09089560916809F5
S1131D607091690980916A0990916B0928EE33E0BA
S1131D7040E050E0D7D2672B682B692BF1F48091B7
S1131D8065098F5F8C3318F4809365090895109268
S1131D906509809166098F5F8C3318F48093660916
S1131DA0089510926609809167098F5F883118F44D
S1131DB0809367090895109267090895AC018370B0
S1131DC09927892B69F59A01369527953695279594
S1131DD0ABE7B4E1D2D29695879564E6689F90010B
S1131DE0699F300D112442175307E9F49A01329583
S1131DF022952F7023273F702327AEE3BAE0BDD28C
S1131E0060E971E0869F9001879F300D969F300DA9
S1131E10112481E090E04217530739F080E00895DF
S1131E2080E090E0089581E090E008952F923F9241
S1131E304F925F926F927F928F929F92AF92BF92D6
S1131E40CF92DF92EF92FF920F931F93CF93DF9382
S1131E50CDB7DEB7E0970FB6F894DEBF0FBECDBFA7
S1131E608C01362E242E80E3EFE1F1E0DE011196A1
S1131E7001900D928A95E1F74801A12CB12C82E0E2
S1131E8088169104A104B104D0F0412C512C3201E4
S1131E904394C12CD12C7601C20190DF83599E4F0B
S1131EA0C80ED91EE11CF11C8FEF481A580A680AA3
S1131EB0780A481459046A047B0470F303C0C12CE3
S1131EC0D12C7601232D30E02150310999F0FE0107
S1131ED03196220F331F220F331F2E0F3F1F819184
S1131EE09191A191B191C80ED91EEA1EFB1E2E1725
S1131EF03F07A9F782E0831530F4C8015FDFC80EFD
S1131F00D91EE11CF11CC701B601620D711D811DB2
S1131F10911D27E030E040E050E004D2862FE096A7
S1131F200FB6F894DEBF0FBECDBFDF91CF911F91E6
S1131F300F91FF90EF90DF90CF90BF90AF909F9064
S1131F408F907F906F905F904F903F902F90089567
S1131F505058BB27AA270ED048C139D130F03ED102
S1131F6020F031F49F3F11F41EF42EC10EF4E095DD
S1131F70E7FB24C1E92F4AD180F3BA17620773073C
S1131F808407950718F071F49EF562C10EF4E0958C
S1131F900B2EBA2FA02D0B01B90190010C01CA011F
S1131FA0A0011124FF27591B99F0593F50F4503ECA
S1131FB068F11A16F040A22F232F342F4427585FBC
S1131FC0F3CF469537952795A795F0405395C9F7D4
S1131FD07EF41F16BA0B620B730B840BBAF091508C
S1131FE0A1F0FF0FBB1F661F771F881FC2F70EC02B
S1131FF0BA0F621F731F841F48F4879577956795FE
S1132000B795F7959E3F08F0B3CF9395880F08F0E6
S11320109927EE0F9795879508950CD0E6C0DED0EA
S113202040F0D5D030F021F45F3F19F0C7C0511112
S113203010C1CAC0EBD098F39923C9F35523B1F367
S1132040951B550BBB27AA2762177307840738F023
S11320509F5F5F4F220F331F441FAA1FA9F333D082
S11320600E2E3AF0E0E830D091505040E695001C36
S1132070CAF729D0FE2F27D0660F771F881FBB1FF2
S1132080261737074807AB07B0E809F0BB0B802DCC
S1132090BF01FF2793585F4F2AF09E3F510568F018
S11320A08DC0D7C05F3FECF3983EDCF386957795FF
S11320B06795B795F7959F5FC9F7880F911D96951A
S11320C0879597F90895E1E0660F771F881FBB1F76
S11320D0621773078407BA0720F0621B730B840B23
S11320E0BA0BEE1F88F7E095089598D088F09F57B3
S11320F090F0B92F9927B751A0F0D1F0660F771F50
S1132100881F991F1AF0BA95C9F712C0B13081F02F
S11321109FD0B1E008959CC0672F782F8827B85FBF
S113212039F0B93FCCF3869577956795B395D9F790
S11321303EF490958095709561957F4F8F4F9F4F9A
S11321400895E89409C097FB3EF4909580957095A6
S113215061957F4F8F4F9F4F9923A9F0F92F96E9EF
S1132160BB279395F695879577956795B795F11164
S1132170F8CFFAF4BB0F11F460FF1BC06F5F7F4F01
S11321808F4F9F4F16C0882311F096E911C0772313
S113219021F09EE8872F762F05C0662371F096E81C
S11321A0862F70E060E02AF09A95660F771F881FEB
S11321B0DAF7880F9695879597F9089597F99F67A9
S11321C080E870E060E008959FEF80EC08950024BB
S11321D00A941616170618060906089500240A9488
S11321E012161306140605060895092E0394000C0E
S11321F011F4882352F0BB0F40F4BF2B11F460FF9D
S113220004C06F5F7F4F8F4F9F4F089557FD9058C5
S1132210440F551F59F05F3F71F04795880F97FBA6
S1132220991F61F09F3F79F0879508951216130660
S11322301406551FF2CF4695F1DF08C0161617068F
S11322401806991FF1CF86957105610508940895C4
S1132250E894BB2766277727CB0197F908950BD01D
S1132260C4CFB5DF28F0BADF18F0952309F0A6CF64
S1132270ABCF1124EECFCADFA0F3959FD1F3950F16
S113228050E0551F629FF001729FBB27F00DB11DF6
S1132290639FAA27F00DB11DAA1F649F6627B00D86
S11322A0A11D661F829F2227B00DA11D621F739F6F
S11322B0B00DA11D621F839FA00D611D221F749F7D
S11322C03327A00D611D231F849F600D211D822FC4
S11322D0762F6A2F11249F5750408AF0E1F088230B
S11322E04AF0EE0FFF1FBB1F661F771F881F915018
S11322F05040A9F79E3F510570F060CFAACF5F3FD1
S1132300ECF3983EDCF3869577956795B795F7954A
S1132310E7959F5FC1F7FE2B880F911D96958795D2
S113232097F90895A1E21A2EAA1BBB1BFD010DC04B
S1132330AA1FBB1FEE1FFF1FA217B307E407F50771
S113234020F0A21BB30BE40BF50B661F771F881F4D
S1132350991F1A9469F760957095809590959B01E3
S1132360AC01BD01CF010895EE0FFF1F0024001C36
S11323700BBE0790F691E02D0994A29FB001B39F84
S1132380C001A39F700D811D1124911DB29F700D7A
S1132390811D1124911D0895FC0188279927E89433
S11323A021912032E9F3293010F02E30C8F32B327A
S11323B039F02D3231F4689403C035D0820F911D69
S11323C0219120532A30C8F31EF4909581959F4F94
S11323D0089546E059E000C0FA01A191B081009748
S11323E019F41097E1F0CD01DC01CD010D9000202E
S11323F011F4C00113C0FB012191222319F020150F
S1132400D9F7F3CFFB012191201519F41E921196EF
S113241006C02223C1F70D900020A1F7D001FA01D4
S1132420A193B08308957AE0979F902D879F802D84
S1132430910D112408950F931F93CF93DF93CDB77C
S1132440DEB72E970FB6F894DEBF0FBECDBF0D8951
S11324501E8986E08C831A8309838FEF9FE79E830E
S11324608D83AE01475E5F4F6F89788DCE010196F3
S113247010D0EF81F885E00FF11F10822E960FB671
S1132480F894DEBF0FBECDBFDF91CF911F910F91A6
S113249008952F923F924F925F926F927F928F9204
S11324A09F92AF92BF92CF92DF92EF92FF920F93DF
S11324B01F93CF93DF93CDB7DEB72B970FB6F89466
S11324C0DEBF0FBECDBF6C017B018A01FC01178208
S11324D01682838181FFBFC1CE0101963C01F601C2
S11324E09381F70193FD859193FF81917F01882367
S11324F009F4ADC1853239F493FD859193FF81913F
S11325007F01853221F4B60190E0D6D1E8CF912C39
S1132510212C312CFFE1F315D8F08B3279F038F40B
S1132520803279F08332A1F4232D20611DC08D32D5
S113253061F0803369F4232D216016C0832D8260FD
S1132540382EE32DE4603E2E2AC0F32DF8601DC022
S113255037FC2DC020ED280F2A3040F08E32B9F41C
S113256036FC75C1232D2064322E19C036FE06C0F8
S11325708AE0989E200D1124922E11C0EAE02E9E2E
S1132580200D1124222EF32DF0623F2E08C08C362C
S113259021F4832D8068382E02C0883641F4F70177
S11325A093FD859193FF81917F018111B3CF982F82
S11325B09F7D9554933028F40C5F1F4F9FE39983BC
S11325C00DC0833631F0833771F0833509F055C07F
S11325D020C0F801808189830E5F1F4F8824839473
S11325E0912C530112C02801F2E04F0E511CF80146
S11325F0A080B18036FE03C0692D70E002C06FEF89
S11326007FEFC5014ED14C018201F32DFF773F2EA0
S113261015C0280122E0420E511CF801A080B180AF
S113262036FE03C0692D70E002C06FEF7FEFC50175
S11326302DD14C01F32DF0683F2E820133FC19C0DB
S1132640822D90E088169906A0F4B60180E290E00D
S113265033D12A94F5CFF50137FC859137FE81916A
S11326605F01B60190E028D121102A9421E0821A5A
S113267091088114910479F7E1C0843611F0893608
S113268039F5F80137FE07C0608171818281938139
S11326900C5F1F4F08C060817181072E000C880BEE
S11326A0990B0E5F1F4FF32DFF763F2E97FF09C046
S11326B090958095709561957F4F8F4F9F4FF068EF
S11326C03F2E2AE030E0A30133D1882E861844C07F
S11326D0853731F4232D2F7EB22E2AE030E025C039
S11326E0932D997FB92E8F36C1F018F4883579F07F
S11326F0AEC0803719F0883721F0A9C0E92FE06116
S1132700BE2EB4FE0DC0FB2DF460BF2E09C034FEF6
S11327100AC0292F2660B22E06C028E030E005C08A
S113272020E130E002C020E132E0F801B7FE07C04A
S113273060817181828193810C5F1F4F06C060812B
S1132740718180E090E00E5F1F4FA301F1D0882ECD
S11327508618FB2DFF773F2E36FE0DC0232D2E7FCE
S1132760A22E891458F434FE0BC032FC09C0832D08
S11327708E7EA82E05C0B82CA32C03C0B82C01C093
S1132780B92CA4FE0FC0FE01E80DF11D8081803339
S113279021F49A2D997EA92E09C0A2FE06C0B394F5
S11327A0B39404C08A2D867809F0B394A3FC10C0B6
S11327B0A0FE06C0B21480F4280C922C9B180DC005
S11327C0B21458F4B60180E290E076D0B394F8CF16
S11327D0B21418F42B1802C0982C212CA4FE0FC09C
S11327E0B60180E390E068D0A2FE16C0A1FC03C04D
S11327F088E790E002C088E590E0B6010CC08A2D1D
S1132800867851F0A1FE02C08BE201C080E2A7FCF1
S11328108DE2B60190E050D0891430F4B60180E323
S113282090E04AD09A94F8CF8A94F301E80DF11D10
S11328308081B60190E040D08110F6CF222009F4C7
S11328404ECEB60180E290E037D02A94F7CFF6015D
S11328508681978102C08FEF9FEF2B960FB6F89475
S1132860DEBF0FBECDBFDF91CF911F910F91FF90BF
S1132870EF90DF90CF90BF90AF909F908F907F901C
S11328806F905F904F903F902F900895FC010590BA
S1132890615070400110D8F7809590958E0F9F1F5E
S11328A00895FC016150704001900110D8F78095A3
S11328B090958E0F9F1F08950F931F93CF93DF93CF
S11328C0FB01238121FD03C08FEF9FEF2CC022FF6A
S11328D016C046815781248135814217530744F439
S11328E0A081B1819D012F5F3F4F318320838C9361
S11328F0268137812F5F3F4F3783268314C08B0196
S1132900EC01FB010084F185E02D0995892BE1F6AA
S1132910D80116968D919C911797019617969C93C2
S11329208E931697CE01DF91CF911F910F91089549
S1132930FA01AA27283051F1203181F1E8946F93EC
S11329406E7F6E5F7F4F8F4F9F4FAF4FB1E03ED092
S1132950B4E03CD0670F781F891F9A1FA11D680F30
S1132960791F8A1F911DA11D6A0F711D811D911D63
S1132970A11D20D009F468943F912AE0269F1124D8
S11329803019305D3193DEF6CF010895462F47703C
S1132990405D4193B3E00FD0C9F7F6CF462F4F7097
S11329A0405D4A3318F0495D31FD4052419302D0F5
S11329B0A9F7EACFB4E0A69597958795779567959B
S11329C0BA95C9F700976105710508959B01AC019B
S11329D00A2E06945795479537952795BA95C9F7C2
S11329E0620F731F841F951FA01D0895F894FFCFD5
S11329F0014F01530157015B015F0163016701C886
S1132A000100000002000000000D03000000001F90
S1132A100000001C0000001F0000001E0000001F3A
S1132A200000001E0000001F0000001F0000001E28
S1132A300000001F0000001E0000001F00000053E3
S1132A40554E004D4F4E00545545005745440054D3
S1132A5048550046524900534154000A2D2D2D2D4E
S1132A602D2D2D2D2D2D2D2D2D2D2D2D2D2D2D2D92
S1132A702D2D204D2045204E2055202D2D2D2D2D42
S1132A802D2D2D2D2D2D2D2D2D2D2D2D2D2D0A00C2
S1132A90202020312E2053686F7720437572726591
S1132AA06E742054656D706572617475726520264C
S1132AB02048756D69646974790A00202020322EDB
S1132AC0205365742043757272656E742054696D69
S1132AD065202620446174650A00202020332E20BE
S1132AE05365742046656564696E67205065726934
S1132AF06F640A00202020342E2053686F772053FF
S1132B00657474696E670A00202020352E2046659E
S1132B106564696E67204F6E63650A002020203665
S1132B202E20536572766F2053657474696E670A3C
S1132B30002D2D2D2D2D2D2D2D2D2D2D2D2D2D2DEE
S1132B402D2D2D2D2D2D2D2D2D2D2D2D2D2D2D2DB1
S1132B502D2D2D2D2D2D2D2D2D2D2D2D2D2D2D2DA1
S1132B602D2D2D2D0A0053656C656374204E756DF3
S1132B70626572203E0A000A2D2D2D2D20534552E8
S1132B80564F2053455454494E47202D2D2D2D0A80
S1132B903E000A496E70757420536572766F206426
S1132BA065677265652E202864656661756C74209E
S1132BB03A20313030290A3E007C7C534552564F2E
S1132BC0204445475245457C7C002020646567725B
S1132BD06565203A202D2D2D202000202064656776
S1132BE0726565203A20202020202000536574203F
S1132BF025640A0A00253034642E253032642E25DB
S1132C00303264202825732900253032643A253077
S1132C1032643A253032642020253032642E253047
S1132C2031644300506C656173652C205072657388
S1132C307320746865204E756D6265722066726FCC
S1132C406D203120746F20340A00506C6561736507
S1132C5020776169742061206D6F6D656E742066E4
S1132C606F7220697420746F206265206D656173D2
S1132C70757265642E0A0043757272656E74205411
S1132C80656D70203D20253032642E25303164E29C
S1132C908483202C2048756D69203D2025303264C2
S1132CA02E2530316400250A000A496E707574209F
S1132CB043757272656E7420596561722E0A3E0006
S1132CC07C7C4441544520534554494E477C7C20E8
S1132CD000202020323059592E4D4D2E44442020BE
S1132CE0200020202032302D2D2E4D4D2E44442006
S1132CF02020000A496E7075742043757272656EE7
S1132D0074204D6F6E74682E0A3E002020203230ED
S1132D10253032642E4D4D2E4444202020002020A6
S1132D20203230253032642E2D2D2E444420202094
S1132D30000A496E7075742043757272656E742052
S1132D40446174652E0A3E00202020323025303242
S1132D50642E253032642E4444202020002020207C
S1132D603230253032642E253032642E2D2D202031
S1132D7020000A496E7075742043757272656E7412
S1132D8020486F75722E0A3E003C3C54494D452044
S1132D90534554494E473E3E2000202020204848B9
S1132DA03A4D4D3A53532020202000202020202D3E
S1132DB02D3A4D4D3A535320202020000A496E707D
S1132DC075742043757272656E74204D696E7574E6
S1132DD0652E0A3E0020202020253032643A4D4DD5
S1132DE03A53532020202000202020202530326414
S1132DF03A2D2D3A535320202020000A496E707535
S1132E00742043757272656E74205365636F6E64CB
S1132E102E0A3E0020202020253032643A2530320C
S1132E20643A5353202020200020202020253032D3
S1132E30643A253032643A2D2D2020202000534559
S1132E405454494E4720434F4D504C4554450A0A6B
S1132E500053455454494E4720434F4D504C45541C
S1132E60450054494D45203A20253032643A2530F6
S1132E7032640A0046656564203A202564670A00C6
S1132E804175746F2046656564696E6720436F6D94
S1132E90706C657465210A000A0A2D2D2D2D2D2DC7
S1132EA02D2D2D2D53455454494E472D2D2D2D2D6B
S1132EB02D2D2D2D2D0A002020E2978B2025642016
S1132EC074696D65732061206461790A2020E2973A
S1132ED08B20000A20202020202020005B25303277
S1132EE0643A253032645D20000A2020E2978B206A
S1132EF02564672070657220612074696D650A0A13
S1132F000A0A002D2D2D2D2D2D2D2D2D2D2053650F
S1132F10742046656564696E6720506572696F64E4
S1132F20202D2D2D2D2D2D2D2D2D2D0A0A005374E0
S1132F30657020312E20486F77206D616E79207482
S1132F40696D65732061206461793F0A00486F7779
S1132F50206D616E792074696D6573202000612095
S1132F606461793F202020302074696D65730061AD
S1132F70206461793F2020202D2074696D657300E1
S1132F80497420697320706F737369626C6520746F
S1132F906F20696E736572742074696D6573206641
S1132FA0726F6D203120746F20362E0A0061206408
S1132FB061793F202020253031642074696D657368
S1132FC000253031642074696D657320612064616B
S1132FD0790A0A005374657020322E205768617490
S1132FE02074696D652073686F756C642049206670
S1132FF06565643F0A00506C656173652C20456EFD
S1133000746572207468652074696D6520736571D8
S113301075656E7469616C6C792E2865783A203018
S1133020383A3330290A00576861742074696D6531
S11330302073686F756C64004920666565643F2081
S1133040253032642074696D6573004920666565B6
S1133050643F202D2D2074696D65730053657420C1
S1133060003A00506C656173652C20496E7365727B
S1133070742074686520686F75722066726F6D20A5
S11330803020746F2032330A00506C656173652CF4
S113309020496E7365727420746865206D696E755D
S11330A074652066726F6D203020746F2035390A84
S11330B0004475706C69636174652076616C756534
S11330C020666F756E642E0A000A202020202020BE
S11330D0202D2D53657474696E672054696D652DB8
S11330E02D0A005374657020332E20486F77206DAD
S11330F0616E79206665656420646F20796F752040
S11331006769766520617420612074696D653F0A82
S113311000756E6974203A20256467202C20657838
S11331202920273127203D202564672C2027332799
S1133130203D202564670A00486F77206D616E7911
S1133140206665656420646F00796F752067697611
S1133150653F2020202020202000796F752067699A
S113316076653F202D2D2D2D2D2000506C6561732B
S1133170652C20456E7465722061206E756D6265E4
S1133180722061626F766520300A005365742025D1
S113319064670A000A53657474696E6720436F6D2F
S11331A0706C657465210A0053657474696E6720D8
S11331B0436F6D706C657465002020202020202DE5
S11331C02D2D2020202020202000494E4954494103
S11331D04C495A494E472E2E2E2E004D616E756174
S11331E06C2046656564696E6720436F6D706C651D
S10931F07465210A0000D1
S9030000FC
